{
  "_format": "hh-sol-artifact-1",
  "contractName": "Soulbound",
  "sourceName": "contracts/Soulbound.sol",
  "abi": [
    {
      "inputs": [],
      "stateMutability": "nonpayable",
      "type": "constructor"
    },
    {
      "inputs": [],
      "name": "SBT__AlreadyMinted",
      "type": "error"
    },
    {
      "inputs": [],
      "name": "SBT__NotMinted",
      "type": "error"
    },
    {
      "inputs": [],
      "name": "SBT__NotTransferable",
      "type": "error"
    },
    {
      "anonymous": false,
      "inputs": [
        {
          "indexed": true,
          "internalType": "address",
          "name": "owner",
          "type": "address"
        },
        {
          "indexed": true,
          "internalType": "address",
          "name": "approved",
          "type": "address"
        },
        {
          "indexed": true,
          "internalType": "uint256",
          "name": "tokenId",
          "type": "uint256"
        }
      ],
      "name": "Approval",
      "type": "event"
    },
    {
      "anonymous": false,
      "inputs": [
        {
          "indexed": true,
          "internalType": "address",
          "name": "owner",
          "type": "address"
        },
        {
          "indexed": true,
          "internalType": "address",
          "name": "operator",
          "type": "address"
        },
        {
          "indexed": false,
          "internalType": "bool",
          "name": "approved",
          "type": "bool"
        }
      ],
      "name": "ApprovalForAll",
      "type": "event"
    },
    {
      "anonymous": false,
      "inputs": [
        {
          "indexed": true,
          "internalType": "uint256",
          "name": "tokenId",
          "type": "uint256"
        }
      ],
      "name": "BurnedSBT",
      "type": "event"
    },
    {
      "anonymous": false,
      "inputs": [
        {
          "indexed": true,
          "internalType": "uint256",
          "name": "tokenId",
          "type": "uint256"
        }
      ],
      "name": "CreatedSBT",
      "type": "event"
    },
    {
      "anonymous": false,
      "inputs": [
        {
          "indexed": true,
          "internalType": "address",
          "name": "from",
          "type": "address"
        },
        {
          "indexed": true,
          "internalType": "address",
          "name": "to",
          "type": "address"
        },
        {
          "indexed": true,
          "internalType": "uint256",
          "name": "tokenId",
          "type": "uint256"
        }
      ],
      "name": "Transfer",
      "type": "event"
    },
    {
      "inputs": [
        {
          "internalType": "address",
          "name": "to",
          "type": "address"
        },
        {
          "internalType": "uint256",
          "name": "tokenId",
          "type": "uint256"
        }
      ],
      "name": "approve",
      "outputs": [],
      "stateMutability": "pure",
      "type": "function"
    },
    {
      "inputs": [
        {
          "internalType": "address",
          "name": "owner",
          "type": "address"
        }
      ],
      "name": "balanceOf",
      "outputs": [
        {
          "internalType": "uint256",
          "name": "",
          "type": "uint256"
        }
      ],
      "stateMutability": "view",
      "type": "function"
    },
    {
      "inputs": [
        {
          "internalType": "uint256",
          "name": "_biometricInfo",
          "type": "uint256"
        }
      ],
      "name": "compare",
      "outputs": [
        {
          "internalType": "bool",
          "name": "",
          "type": "bool"
        }
      ],
      "stateMutability": "view",
      "type": "function"
    },
    {
      "inputs": [
        {
          "internalType": "uint256",
          "name": "tokenId",
          "type": "uint256"
        }
      ],
      "name": "getApproved",
      "outputs": [
        {
          "internalType": "address",
          "name": "",
          "type": "address"
        }
      ],
      "stateMutability": "view",
      "type": "function"
    },
    {
      "inputs": [
        {
          "internalType": "address",
          "name": "_address",
          "type": "address"
        }
      ],
      "name": "getSbtFromAddress",
      "outputs": [
        {
          "internalType": "uint256",
          "name": "",
          "type": "uint256"
        },
        {
          "internalType": "uint256",
          "name": "",
          "type": "uint256"
        },
        {
          "internalType": "address",
          "name": "",
          "type": "address"
        }
      ],
      "stateMutability": "view",
      "type": "function"
    },
    {
      "inputs": [
        {
          "internalType": "uint256",
          "name": "_id",
          "type": "uint256"
        }
      ],
      "name": "getSbtFromId",
      "outputs": [
        {
          "internalType": "uint256",
          "name": "",
          "type": "uint256"
        },
        {
          "internalType": "uint256",
          "name": "",
          "type": "uint256"
        },
        {
          "internalType": "address",
          "name": "",
          "type": "address"
        }
      ],
      "stateMutability": "view",
      "type": "function"
    },
    {
      "inputs": [],
      "name": "getTokenCounter",
      "outputs": [
        {
          "internalType": "uint256",
          "name": "",
          "type": "uint256"
        }
      ],
      "stateMutability": "view",
      "type": "function"
    },
    {
      "inputs": [
        {
          "internalType": "address",
          "name": "owner",
          "type": "address"
        },
        {
          "internalType": "address",
          "name": "operator",
          "type": "address"
        }
      ],
      "name": "isApprovedForAll",
      "outputs": [
        {
          "internalType": "bool",
          "name": "",
          "type": "bool"
        }
      ],
      "stateMutability": "view",
      "type": "function"
    },
    {
      "inputs": [
        {
          "internalType": "uint256",
          "name": "_biometricInfo",
          "type": "uint256"
        }
      ],
      "name": "mintSBT",
      "outputs": [],
      "stateMutability": "nonpayable",
      "type": "function"
    },
    {
      "inputs": [],
      "name": "name",
      "outputs": [
        {
          "internalType": "string",
          "name": "",
          "type": "string"
        }
      ],
      "stateMutability": "view",
      "type": "function"
    },
    {
      "inputs": [
        {
          "internalType": "uint256",
          "name": "tokenId",
          "type": "uint256"
        }
      ],
      "name": "ownerOf",
      "outputs": [
        {
          "internalType": "address",
          "name": "",
          "type": "address"
        }
      ],
      "stateMutability": "view",
      "type": "function"
    },
    {
      "inputs": [
        {
          "internalType": "address",
          "name": "from",
          "type": "address"
        },
        {
          "internalType": "address",
          "name": "to",
          "type": "address"
        },
        {
          "internalType": "uint256",
          "name": "tokenId",
          "type": "uint256"
        }
      ],
      "name": "safeTransferFrom",
      "outputs": [],
      "stateMutability": "nonpayable",
      "type": "function"
    },
    {
      "inputs": [
        {
          "internalType": "address",
          "name": "from",
          "type": "address"
        },
        {
          "internalType": "address",
          "name": "to",
          "type": "address"
        },
        {
          "internalType": "uint256",
          "name": "tokenId",
          "type": "uint256"
        },
        {
          "internalType": "bytes",
          "name": "data",
          "type": "bytes"
        }
      ],
      "name": "safeTransferFrom",
      "outputs": [],
      "stateMutability": "nonpayable",
      "type": "function"
    },
    {
      "inputs": [
        {
          "internalType": "address",
          "name": "operator",
          "type": "address"
        },
        {
          "internalType": "bool",
          "name": "approved",
          "type": "bool"
        }
      ],
      "name": "setApprovalForAll",
      "outputs": [],
      "stateMutability": "pure",
      "type": "function"
    },
    {
      "inputs": [
        {
          "internalType": "bytes4",
          "name": "interfaceId",
          "type": "bytes4"
        }
      ],
      "name": "supportsInterface",
      "outputs": [
        {
          "internalType": "bool",
          "name": "",
          "type": "bool"
        }
      ],
      "stateMutability": "view",
      "type": "function"
    },
    {
      "inputs": [],
      "name": "symbol",
      "outputs": [
        {
          "internalType": "string",
          "name": "",
          "type": "string"
        }
      ],
      "stateMutability": "view",
      "type": "function"
    },
    {
      "inputs": [
        {
          "internalType": "uint256",
          "name": "tokenId",
          "type": "uint256"
        }
      ],
      "name": "tokenURI",
      "outputs": [
        {
          "internalType": "string",
          "name": "",
          "type": "string"
        }
      ],
      "stateMutability": "view",
      "type": "function"
    },
    {
      "inputs": [
        {
          "internalType": "address",
          "name": "from",
          "type": "address"
        },
        {
          "internalType": "address",
          "name": "to",
          "type": "address"
        },
        {
          "internalType": "uint256",
          "name": "tokenId",
          "type": "uint256"
        }
      ],
      "name": "transferFrom",
      "outputs": [],
      "stateMutability": "nonpayable",
      "type": "function"
    }
  ],
  "bytecode": "0x60806040523480156200001157600080fd5b506040518060400160405280600c81526020017f42696f6d657472696353425400000000000000000000000000000000000000008152506040518060400160405280600481526020017f425342540000000000000000000000000000000000000000000000000000000081525081600090816200008f91906200032c565b508060019081620000a191906200032c565b505050600160068190555062000413565b600081519050919050565b7f4e487b7100000000000000000000000000000000000000000000000000000000600052604160045260246000fd5b7f4e487b7100000000000000000000000000000000000000000000000000000000600052602260045260246000fd5b600060028204905060018216806200013457607f821691505b6020821081036200014a5762000149620000ec565b5b50919050565b60008190508160005260206000209050919050565b60006020601f8301049050919050565b600082821b905092915050565b600060088302620001b47fffffffffffffffffffffffffffffffffffffffffffffffffffffffffffffffff8262000175565b620001c0868362000175565b95508019841693508086168417925050509392505050565b6000819050919050565b6000819050919050565b60006200020d620002076200020184620001d8565b620001e2565b620001d8565b9050919050565b6000819050919050565b6200022983620001ec565b62000241620002388262000214565b84845462000182565b825550505050565b600090565b6200025862000249565b620002658184846200021e565b505050565b5b818110156200028d57620002816000826200024e565b6001810190506200026b565b5050565b601f821115620002dc57620002a68162000150565b620002b18462000165565b81016020851015620002c1578190505b620002d9620002d08562000165565b8301826200026a565b50505b505050565b600082821c905092915050565b60006200030160001984600802620002e1565b1980831691505092915050565b60006200031c8383620002ee565b9150826002028217905092915050565b6200033782620000b2565b67ffffffffffffffff811115620003535762000352620000bd565b5b6200035f82546200011b565b6200036c82828562000291565b600060209050601f831160018114620003a457600084156200038f578287015190505b6200039b85826200030e565b8655506200040b565b601f198416620003b48662000150565b60005b82811015620003de57848901518255600182019150602085019450602081019050620003b7565b86831015620003fe5784890151620003fa601f891682620002ee565b8355505b6001600288020188555050505b505050505050565b61298e80620004236000396000f3fe608060405234801561001057600080fd5b50600436106101165760003560e01c806370a08231116100a2578063bb1f1c0211610071578063bb1f1c02146102f3578063c4b8c2571461030f578063c87b56dd1461033f578063e911b6241461036f578063e985e9c5146103a157610116565b806370a082311461026d57806395d89b411461029d578063a22cb465146102bb578063b88d4fde146102d757610116565b806323b872dd116100e957806323b872dd146101b55780633e52e1c1146101d157806342842e0e146102035780636352211e1461021f5780636e02007d1461024f57610116565b806301ffc9a71461011b57806306fdde031461014b578063081812fc14610169578063095ea7b314610199575b600080fd5b61013560048036038101906101309190611a6f565b6103d1565b6040516101429190611ab7565b60405180910390f35b6101536104b3565b6040516101609190611b62565b60405180910390f35b610183600480360381019061017e9190611bba565b610545565b6040516101909190611c28565b60405180910390f35b6101b360048036038101906101ae9190611c6f565b61058b565b005b6101cf60048036038101906101ca9190611caf565b6105bd565b005b6101eb60048036038101906101e69190611bba565b61061d565b6040516101fa93929190611d11565b60405180910390f35b61021d60048036038101906102189190611caf565b610694565b005b61023960048036038101906102349190611bba565b6106b4565b6040516102469190611c28565b60405180910390f35b61025761073a565b6040516102649190611d48565b60405180910390f35b61028760048036038101906102829190611d63565b610744565b6040516102949190611d48565b60405180910390f35b6102a56107fb565b6040516102b29190611b62565b60405180910390f35b6102d560048036038101906102d09190611dbc565b61088d565b005b6102f160048036038101906102ec9190611f31565b6108bf565b005b61030d60048036038101906103089190611bba565b610921565b005b61032960048036038101906103249190611bba565b61094e565b6040516103369190611ab7565b60405180910390f35b61035960048036038101906103549190611bba565b610a3e565b6040516103669190611b62565b60405180910390f35b61038960048036038101906103849190611d63565b610abf565b60405161039893929190611d11565b60405180910390f35b6103bb60048036038101906103b69190611fb4565b610bba565b6040516103c89190611ab7565b60405180910390f35b60007f80ac58cd000000000000000000000000000000000000000000000000000000007bffffffffffffffffffffffffffffffffffffffffffffffffffffffff1916827bffffffffffffffffffffffffffffffffffffffffffffffffffffffff1916148061049c57507f5b5e139f000000000000000000000000000000000000000000000000000000007bffffffffffffffffffffffffffffffffffffffffffffffffffffffff1916827bffffffffffffffffffffffffffffffffffffffffffffffffffffffff1916145b806104ac57506104ab82610c4e565b5b9050919050565b6060600080546104c290612023565b80601f01602080910402602001604051908101604052809291908181526020018280546104ee90612023565b801561053b5780601f106105105761010080835404028352916020019161053b565b820191906000526020600020905b81548152906001019060200180831161051e57829003601f168201915b5050505050905090565b600061055082610cb8565b6004600083815260200190815260200160002060009054906101000a900473ffffffffffffffffffffffffffffffffffffffff169050919050565b6040517f791146f200000000000000000000000000000000000000000000000000000000815260040160405180910390fd5b6105ce6105c8610d03565b82610d0b565b61060d576040517f08c379a0000000000000000000000000000000000000000000000000000000008152600401610604906120c6565b60405180910390fd5b610618838383610da0565b505050565b6000806000600860008581526020019081526020016000206000015460086000868152602001908152602001600020600101546008600087815260200190815260200160002060020160009054906101000a900473ffffffffffffffffffffffffffffffffffffffff169250925092509193909250565b6106af838383604051806020016040528060008152506108bf565b505050565b6000806106c083610dd2565b9050600073ffffffffffffffffffffffffffffffffffffffff168173ffffffffffffffffffffffffffffffffffffffff1603610731576040517f08c379a000000000000000000000000000000000000000000000000000000000815260040161072890612132565b60405180910390fd5b80915050919050565b6000600654905090565b60008073ffffffffffffffffffffffffffffffffffffffff168273ffffffffffffffffffffffffffffffffffffffff16036107b4576040517f08c379a00000000000000000000000000000000000000000000000000000000081526004016107ab906121c4565b60405180910390fd5b600360008373ffffffffffffffffffffffffffffffffffffffff1673ffffffffffffffffffffffffffffffffffffffff168152602001908152602001600020549050919050565b60606001805461080a90612023565b80601f016020809104026020016040519081016040528092919081815260200182805461083690612023565b80156108835780601f1061085857610100808354040283529160200191610883565b820191906000526020600020905b81548152906001019060200180831161086657829003601f168201915b5050505050905090565b6040517f791146f200000000000000000000000000000000000000000000000000000000815260040160405180910390fd5b6108d06108ca610d03565b83610d0b565b61090f576040517f08c379a0000000000000000000000000000000000000000000000000000000008152600401610906906120c6565b60405180910390fd5b61091b84848484610e0f565b50505050565b60003390506109308282610e6b565b600061093b82610abf565b505090506109498282611087565b505050565b6000803390506000600760008373ffffffffffffffffffffffffffffffffffffffff1673ffffffffffffffffffffffffffffffffffffffff16815260200190815260200160002060000154036109d0576040517fd4fc2e5e00000000000000000000000000000000000000000000000000000000815260040160405180910390fd5b60006109dc84836110a5565b905080600760008473ffffffffffffffffffffffffffffffffffffffff1673ffffffffffffffffffffffffffffffffffffffff1681526020019081526020016000206001015403610a3257600192505050610a39565b6000925050505b919050565b6060600080610a4c8461061d565b50915091506000610a8d610a5f846110db565b610a68846110db565b604051602001610a79929190612434565b6040516020818303038152906040526111a9565b9050600081604051602001610aa291906124db565b604051602081830303815290604052905080945050505050919050565b6000806000600760008573ffffffffffffffffffffffffffffffffffffffff1673ffffffffffffffffffffffffffffffffffffffff16815260200190815260200160002060000154600760008673ffffffffffffffffffffffffffffffffffffffff1673ffffffffffffffffffffffffffffffffffffffff16815260200190815260200160002060010154600760008773ffffffffffffffffffffffffffffffffffffffff1673ffffffffffffffffffffffffffffffffffffffff16815260200190815260200160002060020160009054906101000a900473ffffffffffffffffffffffffffffffffffffffff169250925092509193909250565b6000600560008473ffffffffffffffffffffffffffffffffffffffff1673ffffffffffffffffffffffffffffffffffffffff16815260200190815260200160002060008373ffffffffffffffffffffffffffffffffffffffff1673ffffffffffffffffffffffffffffffffffffffff16815260200190815260200160002060009054906101000a900460ff16905092915050565b60007f01ffc9a7000000000000000000000000000000000000000000000000000000007bffffffffffffffffffffffffffffffffffffffffffffffffffffffff1916827bffffffffffffffffffffffffffffffffffffffffffffffffffffffff1916149050919050565b610cc181611321565b610d00576040517f08c379a0000000000000000000000000000000000000000000000000000000008152600401610cf790612132565b60405180910390fd5b50565b600033905090565b600080610d17836106b4565b90508073ffffffffffffffffffffffffffffffffffffffff168473ffffffffffffffffffffffffffffffffffffffff161480610d595750610d588185610bba565b5b80610d9757508373ffffffffffffffffffffffffffffffffffffffff16610d7f84610545565b73ffffffffffffffffffffffffffffffffffffffff16145b91505092915050565b6040517f791146f200000000000000000000000000000000000000000000000000000000815260040160405180910390fd5b60006002600083815260200190815260200160002060009054906101000a900473ffffffffffffffffffffffffffffffffffffffff169050919050565b610e1a848484610da0565b610e2684848484611362565b610e65576040517f08c379a0000000000000000000000000000000000000000000000000000000008152600401610e5c9061256f565b60405180910390fd5b50505050565b6000600760008373ffffffffffffffffffffffffffffffffffffffff1673ffffffffffffffffffffffffffffffffffffffff1681526020019081526020016000206000015414610ee7576040517f7694dd2600000000000000000000000000000000000000000000000000000000815260040160405180910390fd5b600060405180606001604052806006548152602001610f0685856110a5565b81526020018373ffffffffffffffffffffffffffffffffffffffff16815250905080600760008473ffffffffffffffffffffffffffffffffffffffff1673ffffffffffffffffffffffffffffffffffffffff168152602001908152602001600020600082015181600001556020820151816001015560408201518160020160006101000a81548173ffffffffffffffffffffffffffffffffffffffff021916908373ffffffffffffffffffffffffffffffffffffffff16021790555090505080600860006006548152602001908152602001600020600082015181600001556020820151816001015560408201518160020160006101000a81548173ffffffffffffffffffffffffffffffffffffffff021916908373ffffffffffffffffffffffffffffffffffffffff1602179055509050506006547fdf69a960f96573439f5ba8eed52dd419f659f9e453d4dc08ebec41290305f94f60405160405180910390a260016006600082825461107b91906125be565b92505081905550505050565b6110a18282604051806020016040528060008152506114e9565b5050565b600082826040516020016110ba92919061265b565b6040516020818303038152906040528051906020012060001c905092915050565b6060600060016110ea84611544565b01905060008167ffffffffffffffff81111561110957611108611e06565b5b6040519080825280601f01601f19166020018201604052801561113b5781602001600182028036833780820191505090505b509050600082602001820190505b60011561119e578080600190039150507f3031323334353637383961626364656600000000000000000000000000000000600a86061a8153600a858161119257611191612687565b5b04945060008503611149575b819350505050919050565b606060008251036111cb5760405180602001604052806000815250905061131c565b600060405180606001604052806040815260200161291960409139905060006003600285516111fa91906125be565b61120491906126b6565b600461121091906126e7565b9050600060208261122191906125be565b67ffffffffffffffff81111561123a57611239611e06565b5b6040519080825280601f01601f19166020018201604052801561126c5781602001600182028036833780820191505090505b509050818152600183018586518101602084015b818310156112db576003830192508251603f8160121c168501518253600182019150603f81600c1c168501518253600182019150603f8160061c168501518253600182019150603f8116850151825360018201915050611280565b6003895106600181146112f5576002811461130557611310565b613d3d60f01b6002830352611310565b603d60f81b60018303525b50505050508093505050505b919050565b60008073ffffffffffffffffffffffffffffffffffffffff1661134383610dd2565b73ffffffffffffffffffffffffffffffffffffffff1614159050919050565b60006113838473ffffffffffffffffffffffffffffffffffffffff16611697565b156114dc578373ffffffffffffffffffffffffffffffffffffffff1663150b7a026113ac610d03565b8786866040518563ffffffff1660e01b81526004016113ce949392919061277e565b6020604051808303816000875af192505050801561140a57506040513d601f19601f8201168201806040525081019061140791906127df565b60015b61148c573d806000811461143a576040519150601f19603f3d011682016040523d82523d6000602084013e61143f565b606091505b506000815103611484576040517f08c379a000000000000000000000000000000000000000000000000000000000815260040161147b9061256f565b60405180910390fd5b805181602001fd5b63150b7a0260e01b7bffffffffffffffffffffffffffffffffffffffffffffffffffffffff1916817bffffffffffffffffffffffffffffffffffffffffffffffffffffffff1916149150506114e1565b600190505b949350505050565b6114f383836116ba565b6115006000848484611362565b61153f576040517f08c379a00000000000000000000000000000000000000000000000000000000081526004016115369061256f565b60405180910390fd5b505050565b600080600090507a184f03e93ff9f4daa797ed6e38ed64bf6a1f01000000000000000083106115a2577a184f03e93ff9f4daa797ed6e38ed64bf6a1f010000000000000000838161159857611597612687565b5b0492506040810190505b6d04ee2d6d415b85acef810000000083106115df576d04ee2d6d415b85acef810000000083816115d5576115d4612687565b5b0492506020810190505b662386f26fc10000831061160e57662386f26fc10000838161160457611603612687565b5b0492506010810190505b6305f5e1008310611637576305f5e100838161162d5761162c612687565b5b0492506008810190505b612710831061165c57612710838161165257611651612687565b5b0492506004810190505b6064831061167f576064838161167557611674612687565b5b0492506002810190505b600a831061168e576001810190505b80915050919050565b6000808273ffffffffffffffffffffffffffffffffffffffff163b119050919050565b600073ffffffffffffffffffffffffffffffffffffffff168273ffffffffffffffffffffffffffffffffffffffff1603611729576040517f08c379a000000000000000000000000000000000000000000000000000000000815260040161172090612858565b60405180910390fd5b61173281611321565b15611772576040517f08c379a0000000000000000000000000000000000000000000000000000000008152600401611769906128c4565b60405180910390fd5b6117806000838360016118d7565b61178981611321565b156117c9576040517f08c379a00000000000000000000000000000000000000000000000000000000081526004016117c0906128c4565b60405180910390fd5b6001600360008473ffffffffffffffffffffffffffffffffffffffff1673ffffffffffffffffffffffffffffffffffffffff16815260200190815260200160002060008282540192505081905550816002600083815260200190815260200160002060006101000a81548173ffffffffffffffffffffffffffffffffffffffff021916908373ffffffffffffffffffffffffffffffffffffffff160217905550808273ffffffffffffffffffffffffffffffffffffffff16600073ffffffffffffffffffffffffffffffffffffffff167fddf252ad1be2c89b69c2b068fc378daa952ba7f163c4a11628f55a4df523b3ef60405160405180910390a46118d36000838360016119fd565b5050565b60018111156119f757600073ffffffffffffffffffffffffffffffffffffffff168473ffffffffffffffffffffffffffffffffffffffff161461196b5780600360008673ffffffffffffffffffffffffffffffffffffffff1673ffffffffffffffffffffffffffffffffffffffff168152602001908152602001600020600082825461196391906128e4565b925050819055505b600073ffffffffffffffffffffffffffffffffffffffff168373ffffffffffffffffffffffffffffffffffffffff16146119f65780600360008573ffffffffffffffffffffffffffffffffffffffff1673ffffffffffffffffffffffffffffffffffffffff16815260200190815260200160002060008282546119ee91906125be565b925050819055505b5b50505050565b50505050565b6000604051905090565b600080fd5b600080fd5b60007fffffffff0000000000000000000000000000000000000000000000000000000082169050919050565b611a4c81611a17565b8114611a5757600080fd5b50565b600081359050611a6981611a43565b92915050565b600060208284031215611a8557611a84611a0d565b5b6000611a9384828501611a5a565b91505092915050565b60008115159050919050565b611ab181611a9c565b82525050565b6000602082019050611acc6000830184611aa8565b92915050565b600081519050919050565b600082825260208201905092915050565b60005b83811015611b0c578082015181840152602081019050611af1565b60008484015250505050565b6000601f19601f8301169050919050565b6000611b3482611ad2565b611b3e8185611add565b9350611b4e818560208601611aee565b611b5781611b18565b840191505092915050565b60006020820190508181036000830152611b7c8184611b29565b905092915050565b6000819050919050565b611b9781611b84565b8114611ba257600080fd5b50565b600081359050611bb481611b8e565b92915050565b600060208284031215611bd057611bcf611a0d565b5b6000611bde84828501611ba5565b91505092915050565b600073ffffffffffffffffffffffffffffffffffffffff82169050919050565b6000611c1282611be7565b9050919050565b611c2281611c07565b82525050565b6000602082019050611c3d6000830184611c19565b92915050565b611c4c81611c07565b8114611c5757600080fd5b50565b600081359050611c6981611c43565b92915050565b60008060408385031215611c8657611c85611a0d565b5b6000611c9485828601611c5a565b9250506020611ca585828601611ba5565b9150509250929050565b600080600060608486031215611cc857611cc7611a0d565b5b6000611cd686828701611c5a565b9350506020611ce786828701611c5a565b9250506040611cf886828701611ba5565b9150509250925092565b611d0b81611b84565b82525050565b6000606082019050611d266000830186611d02565b611d336020830185611d02565b611d406040830184611c19565b949350505050565b6000602082019050611d5d6000830184611d02565b92915050565b600060208284031215611d7957611d78611a0d565b5b6000611d8784828501611c5a565b91505092915050565b611d9981611a9c565b8114611da457600080fd5b50565b600081359050611db681611d90565b92915050565b60008060408385031215611dd357611dd2611a0d565b5b6000611de185828601611c5a565b9250506020611df285828601611da7565b9150509250929050565b600080fd5b600080fd5b7f4e487b7100000000000000000000000000000000000000000000000000000000600052604160045260246000fd5b611e3e82611b18565b810181811067ffffffffffffffff82111715611e5d57611e5c611e06565b5b80604052505050565b6000611e70611a03565b9050611e7c8282611e35565b919050565b600067ffffffffffffffff821115611e9c57611e9b611e06565b5b611ea582611b18565b9050602081019050919050565b82818337600083830152505050565b6000611ed4611ecf84611e81565b611e66565b905082815260208101848484011115611ef057611eef611e01565b5b611efb848285611eb2565b509392505050565b600082601f830112611f1857611f17611dfc565b5b8135611f28848260208601611ec1565b91505092915050565b60008060008060808587031215611f4b57611f4a611a0d565b5b6000611f5987828801611c5a565b9450506020611f6a87828801611c5a565b9350506040611f7b87828801611ba5565b925050606085013567ffffffffffffffff811115611f9c57611f9b611a12565b5b611fa887828801611f03565b91505092959194509250565b60008060408385031215611fcb57611fca611a0d565b5b6000611fd985828601611c5a565b9250506020611fea85828601611c5a565b9150509250929050565b7f4e487b7100000000000000000000000000000000000000000000000000000000600052602260045260246000fd5b6000600282049050600182168061203b57607f821691505b60208210810361204e5761204d611ff4565b5b50919050565b7f4552433732313a2063616c6c6572206973206e6f7420746f6b656e206f776e6560008201527f72206f7220617070726f76656400000000000000000000000000000000000000602082015250565b60006120b0602d83611add565b91506120bb82612054565b604082019050919050565b600060208201905081810360008301526120df816120a3565b9050919050565b7f4552433732313a20696e76616c696420746f6b656e2049440000000000000000600082015250565b600061211c601883611add565b9150612127826120e6565b602082019050919050565b6000602082019050818103600083015261214b8161210f565b9050919050565b7f4552433732313a2061646472657373207a65726f206973206e6f74206120766160008201527f6c6964206f776e65720000000000000000000000000000000000000000000000602082015250565b60006121ae602983611add565b91506121b982612152565b604082019050919050565b600060208201905081810360008301526121dd816121a1565b9050919050565b600081905092915050565b7f7b226e616d65223a202242696f6d6574726963534254222c0000000000000000600082015250565b60006122256018836121e4565b9150612230826121ef565b601882019050919050565b7f226465736372697074696f6e223a2022416e2062696f6d65747269632053425460008201527f222c200000000000000000000000000000000000000000000000000000000000602082015250565b60006122976023836121e4565b91506122a28261223b565b602382019050919050565b7f2261747472696275746573223a205b7b226964223a2000000000000000000000600082015250565b60006122e36016836121e4565b91506122ee826122ad565b601682019050919050565b600061230482611ad2565b61230e81856121e4565b935061231e818560208601611aee565b80840191505092915050565b7f2c20226861736856616c7565223a200000000000000000000000000000000000600082015250565b6000612360600f836121e4565b915061236b8261232a565b600f82019050919050565b7f7d5d2c2022696d616765223a2022697066733a2f2f6261667962656962676b6c60008201527f6e6e34717037776c6d67716b7477787672336a6a68337767697432636773683460208201527f6d7132356d747870776371376e6d34342f62696f6d657472696325323063617260408201527f64253230322e6a706567227d0000000000000000000000000000000000000000606082015250565b600061241e606c836121e4565b915061242982612376565b606c82019050919050565b600061243f82612218565b915061244a8261228a565b9150612455826122d6565b915061246182856122f9565b915061246c82612353565b915061247882846122f9565b915061248382612411565b91508190509392505050565b7f646174613a6170706c69636174696f6e2f6a736f6e3b6261736536342c000000600082015250565b60006124c5601d836121e4565b91506124d08261248f565b601d82019050919050565b60006124e6826124b8565b91506124f282846122f9565b915081905092915050565b7f4552433732313a207472616e7366657220746f206e6f6e20455243373231526560008201527f63656976657220696d706c656d656e7465720000000000000000000000000000602082015250565b6000612559603283611add565b9150612564826124fd565b604082019050919050565b600060208201905081810360008301526125888161254c565b9050919050565b7f4e487b7100000000000000000000000000000000000000000000000000000000600052601160045260246000fd5b60006125c982611b84565b91506125d483611b84565b92508282019050808211156125ec576125eb61258f565b5b92915050565b6000819050919050565b61260d61260882611b84565b6125f2565b82525050565b60008160601b9050919050565b600061262b82612613565b9050919050565b600061263d82612620565b9050919050565b61265561265082611c07565b612632565b82525050565b600061266782856125fc565b6020820191506126778284612644565b6014820191508190509392505050565b7f4e487b7100000000000000000000000000000000000000000000000000000000600052601260045260246000fd5b60006126c182611b84565b91506126cc83611b84565b9250826126dc576126db612687565b5b828204905092915050565b60006126f282611b84565b91506126fd83611b84565b925082820261270b81611b84565b915082820484148315176127225761272161258f565b5b5092915050565b600081519050919050565b600082825260208201905092915050565b600061275082612729565b61275a8185612734565b935061276a818560208601611aee565b61277381611b18565b840191505092915050565b60006080820190506127936000830187611c19565b6127a06020830186611c19565b6127ad6040830185611d02565b81810360608301526127bf8184612745565b905095945050505050565b6000815190506127d981611a43565b92915050565b6000602082840312156127f5576127f4611a0d565b5b6000612803848285016127ca565b91505092915050565b7f4552433732313a206d696e7420746f20746865207a65726f2061646472657373600082015250565b6000612842602083611add565b915061284d8261280c565b602082019050919050565b6000602082019050818103600083015261287181612835565b9050919050565b7f4552433732313a20746f6b656e20616c7265616479206d696e74656400000000600082015250565b60006128ae601c83611add565b91506128b982612878565b602082019050919050565b600060208201905081810360008301526128dd816128a1565b9050919050565b60006128ef82611b84565b91506128fa83611b84565b92508282039050818111156129125761291161258f565b5b9291505056fe4142434445464748494a4b4c4d4e4f505152535455565758595a6162636465666768696a6b6c6d6e6f707172737475767778797a303132333435363738392b2fa2646970667358221220f8aa94c49ca74ed46bc82b6eac6f59c6aed42df4f4eb356e76b41206b50a272864736f6c63430008110033",
  "linkReferences": {},
  "deployedLinkReferences": {}
}